:100000000C948F000C94B7000C94B7000C94B700BC
:100010000C94B7000C94B7000C94B7000C94B70084
:100020000C94B7000C94B7000C94B7000C94B70074
:100030000C94B7000C94B7000C94B7000C94B70064
:100040000C9441040C94B7000C9417060C945306BE
:100050000C94B7000C94B7000C94B7000C94B70044
:100060000C94B7000C94B7007600840092009D00B9
:10007000AA00B500C3004C696E757820436F6E6EA0
:1000800065637400576972656C65737320436F6EA6
:1000900066005468697264206D656E750042616324
:1000A0006B20746F204D61696E004C696E7578200D
:1000B0004D656E7500534D312C53543365382C53B8
:1000C0004F3100574E2C434E000000000700020144
:1000D000000003040600000000000000000102040C
:1000E00008102040800102040810200102040810BA
:1000F00020040404040404040402020202020203B1
:10010000030303030300000000250028002B000068
:10011000000000240027002A00000D040E0711240F
:100120001FBECFEFD4E0DEBFCDBF11E0A0E0B1E055
:10013000E6E5FAE102C005900D92AE33B107D9F7BA
:1001400012E0AEE3B1E001C01D92AC31B107E1F7BE
:1001500011E0CEE1D1E004C02297FE010E94250DFE
:10016000CA31D107C9F70E945E070C94160A0C9495
:100170000000CF93DF93CDB7DEB762970FB6F89448
:10018000DEBF0FBECDBFBC01660F771F68597F4F22
:1001900042E050E0CE0141960E94190A69897A89AD
:1001A000CE0101960E94220ABE016F5F7F4F87E554
:1001B00091E00E94A30762960FB6F894DEBF0FBECF
:1001C000CDBFDF91CF910895CF92DF92EF92FF9252
:1001D0000F931F93CF93DF93082FEB0180E00E94D2
:1001E00020049093560180935501893E23E09207A5
:1001F000ACF7823391050CF18A3F910504F1823C02
:1002000021E09207F4F08A3822E09207E4F0823588
:10021000934024F713E70E948B046B017C01CC0E02
:10022000DD1EE11CF11C0E948B04C616D706E806F1
:10023000F90668F41337A9F40AC012E705C015E7F8
:1002400003C014E601C01CE6013059F4E4CF80E09D
:100250000E9420049093560180935501893E93405B
:1002600014F3812FDF91CF911F910F91FF90EF90A9
:10027000DF90CF9008958F929F92AF92BF92CF92CE
:10028000DF92EF92FF920F931F93CF93DF93CDB73F
:10029000DEB7E2970FB6F894DEBF0FBECDBF87E59D
:1002A00091E00E94350987E591E00E94F10861E63E
:1002B00087E591E00E94AE0840E060E087E591E0CC
:1002C0000E940809FE01319682E3DF011D928A95A2
:1002D000E9F7A12CB12CC12C51E6D52E00E010E09D
:1002E0007F016AEF70E081E00E94E400823769F0EC
:1002F00034F48436B1F18C3609F04EC022C0833715
:10030000A1F1853709F048C026C0AA2009F49CC095
:10031000B11005C0F701E00FF11FD08209C0B1E0B4
:10032000F701E00FF11FBB1206C08D2D80528083B4
:100330000F5F1F4F41C08C2D805D80830F5F1F4F6B
:1003400049C0AA2009F482C00115110509F480C032
:10035000015011097DC082E0B81609F47FC0B39442
:1003600077C0BB20B9F1BA9427C0AA20C9F1FE0119
:10037000E00FF11F8AE08283FE01E00FF11F13827C
:10038000BE016F5F7F4F85E791E00E94A30787E57D
:1003900091E00E94F90868C0833709F061C031C05C
:1003A0008F3F21F491E6D91208C01DC0813021F49D
:1003B000AAE7DA1202C01BC080E0D80E0FC08F3F40
:1003C00019F4CC20C1F007C0813021F4B9E0CB1280
:1003D00002C015C080E0C80E42E0B42EA12C11C0AE
:1003E000AA24A3940EC0A12C3AE7D32E0AC0A12CB4
:1003F00021E6D22E06C0A12C99E0C92E02C0A12C64
:10040000C12C04FB442740F9842EB8016F70772774
:10041000962E87E591E00E940809B11002C06D2D6B
:1004200008C081E0B81203C06D2D605202C06C2D6F
:10043000605D87E591E00E94AE08482D692D87E553
:1004400091E00E9408094DCF81E003C08FEF01C009
:1004500080E092E0B91609F4B2CFA2CFB12CACCFB4
:10046000A2E0BA12A9CFB6CFE2960FB6F894DEBFDB
:100470000FBECDBFDF91CF911F910F91FF90EF90F5
:10048000DF90CF90BF90AF909F908F900895AF92E4
:10049000BF92CF92DF92EF92FF920F931F93CF9371
:1004A000DF93CDB7DEB761970FB6F894DEBF0FBE0E
:1004B000CDBF62E0B62E70E1A72EE2E1EE2EE1E0C4
:1004C000FE2E8E010F5F1F4FF1E1CF2E1F92BF92C4
:1004D0001F92AF92FF92EF921F930F930E94290AEF
:1004E000B80185E791E00E94A3070FB6F894DEBF3C
:1004F0000FBECDBF85E791E00E94AA05883431F395
:100500008F34C1F38735A9F587E591E00E9435095D
:10051000D12CF8018C2D11928A95E9F721E130E078
:10052000A8016AE085E791E00E94D507800F911F3E
:10053000FC0110824D2D61E087E591E00E940809E1
:10054000B80187E591E00E94A307D394F2E0DF129F
:10055000E0CF85E791E00E94AA05482F60E087E59B
:1005600091E00E94080965E087E591E00E94AE08ED
:100570003EC0863431F587E591E00E943509D12CE3
:10058000F8018C2D11928A95E9F721E130E0A8015C
:100590006AE085E791E00E94D507800F911FFC017A
:1005A00010824D2D60E087E591E00E940809B801B6
:1005B00087E591E00E94A307D394F2E0DF12E0CF39
:1005C00016C0823459F460ED77E081E00E94E400C7
:1005D000682F85E791E00E94E0058CCF803519F403
:1005E0000E943B0104C0883509F084CF07C061E256
:1005F00071E085E791E00E94A3077CCF61960FB67A
:10060000F894DEBF0FBECDBFDF91CF911F910F9148
:10061000FF90EF90DF90CF90BF90AF90089540E0B3
:100620005BE460E070E085E791E00E948E0620E0E8
:1006300042E060E187E591E00E943C0941E051E041
:1006400065E087E591E00E94B708EFE3F1E080E024
:1006500081938F5F8431E1F787E591E00C94350950
:10066000CF93DF931F92CDB7DEB7882319F0833085
:1006700001F50DC0611108C083E08093540180939F
:10068000000180933E0115C01092540112C0611107
:1006900008C01092540182E08093000110923E0144
:1006A00008C0613021F489830E94470289818093C8
:1006B0005401109253010F90DF91CF9108950F9341
:1006C0001F93CF93DF9387E591E00E943509C0E047
:1006D000D0E0809154018E01015C1E4FF801E80FBB
:1006E000F11D87FDFA958081992787FD90952091CE
:1006F0003E01821B910927FD93952091000133272C
:1007000027FD3095281739070CF06AC053C0709147
:100710005401E72FFF27E7FDF09560913E01462F3A
:10072000552747FD509520910001332727FD30952F
:10073000E15CFE4F8081992787FD9095841B950B86
:1007400001968217930724F47F5F7093540160C071
:1007500070915301E70FF11D77FDFA95808199277C
:1007600087FD9095841B950B8217930724F47F5F78
:10077000709353014DC0609354011092530148C0CF
:10078000833709F045C080913E01E0915301FF2776
:10079000E7FDF09590915401E15CFE4FE90FF11DEA
:1007A00097FDFA956081681BDF91CF911F910F91A2
:1007B0000C9430034091530160E087E591E00E9482
:1007C000080965E087E591E00E94AE080E944702B3
:1007D00068EB7BE081E00E94E400843689F697CFE5
:1007E0004C2F61E087E591E00E9408098091540157
:1007F000F801E80FF11D87FDFA958081992787FDA3
:1008000090950E94B9002196C230D10599F261CF2E
:10081000DF91CF911F910F910895CF92EF920F9397
:10082000A7E0CA2EB6E0EB2E05E024E049E068E040
:1008300087E591E00E94F0090F91EF90CF90089525
:100840008E3008F08E5087702091090140E4249F7B
:1008500090011124822B80937C0080917A00806427
:1008600080937A0080917A0086FDFCCF20917800F9
:1008700030917900932F80E0AC01422B9A01C9019D
:1008800008951F920F920FB60F9211242F933F934A
:100890008F939F93AF93BF9380916C0190916D0163
:1008A000A0916E01B0916F0130917401232F2D5FE3
:1008B0002D3720F40196A11DB11D05C0232F2A5705
:1008C0000296A11DB11D2093740180936C01909339
:1008D0006D01A0936E01B0936F01809170019091B2
:1008E0007101A0917201B09173010196A11DB11D1A
:1008F0008093700190937101A0937201B093730182
:10090000BF91AF919F918F913F912F910F900FBE0B
:100910000F901F9018950F931F938FB7F894009125
:100920006C0110916D0120916E0130916F018FBFAC
:10093000B801C9011F910F910895019739F0880FEF
:10094000991F880F991F02970197F1F708957894DE
:1009500084B5826084BD84B5816084BD85B58260C4
:1009600085BD85B5816085BDEEE6F0E08081816062
:100970008083E1E8F0E01082808182608083808162
:1009800081608083E0E8F0E0808181608083E1EB3A
:10099000F0E0808184608083E0EBF0E08081816022
:1009A0008083EAE7F0E080818460808380818260D8
:1009B00080838081816080838081806880831092C1
:1009C000C1000895833069F028F48130A1F08230AD
:1009D00011F514C08630B1F08730C1F08430D9F4FD
:1009E00004C0809180008F7703C0809180008F7D4C
:1009F00080938000089584B58F7702C084B58F7D81
:100A000084BD08958091B0008F7703C08091B000BD
:100A10008F7D8093B0000895CF93DF9390E0FC0129
:100A2000E352FF4F4491FC01EF50FF4F8491882324
:100A300041F190E0880F991FFC01E15FFE4F259185
:100A40003491D9018B5F9E4FFC0185919491C82F01
:100A5000D92F9FB7F8948C91611106C040958423DB
:100A60008C938881842308C0623041F4242F209520
:100A700082238C938881842B888302C0842B8C935F
:100A80009FBFDF91CF9108950F931F93CF93DF9373
:100A90001F92CDB7DEB7282F30E0F901E753FF4FA3
:100AA0008491F901E352FF4F1491F901EF50FF4F88
:100AB00004910023D1F0882321F069830E94E2048D
:100AC0006981E02FF0E0EE0FFF1FEB5FFE4F859195
:100AD0009491DC019FB7F8948C91611103C010953B
:100AE000812301C0812B8C939FBF0F90DF91CF9109
:100AF0001F910F910895FC0184859585FC01E05CB0
:100B0000FF4F20813181FC01EE5BFF4F808191819D
:100B1000281B390B2F733327C9010895FC018485E5
:100B20009585FC01E05CFF4F40815181FC01EE5B4B
:100B3000FF4F208131814217530741F00190F0812E
:100B4000E02DE80FF91F208130E002C02FEF3FEFCA
:100B5000C9010895FC0184859585FC01E05CFF4F87
:100B600040815181FC01EE5BFF4F208131814217B2
:100B7000530781F0A081B181A80FB91F8C9120810A
:100B800031812F5F3F4F2F73332731832083282FED
:100B900030E002C02FEF3FEFC9010895FC018685C8
:100BA0009785FC01E05CFF4FDC01AE5BBF4F4081ED
:100BB00051812D913C91119742175307C1F7089528
:100BC000CF93DF93FC0186859785DC01A05CBF4F46
:100BD0002D913C9111972F5F3F4F2F733327EC01DD
:100BE000CE5BDF4F4881598124173507D9F30D902B
:100BF000BC91A02DA80FB91F6C93A685B785A05CEA
:100C0000BF4F11963C932E93A689B7892C9181E012
:100C100090E0058C02C0880F991F0A94E2F7282BF8
:100C20002C9381E090E0DF91CF91089508951F9279
:100C30000F920FB60F9211242F933F934F938F93E0
:100C40009F93EF93FF934091C6008091180290917B
:100C5000190201968F73992720911A0230911B0275
:100C60008217930759F0E0911802F0911902E852A7
:100C7000FE4F40839093190280931802FF91EF91E9
:100C80009F918F914F913F912F910F900FBE0F9099
:100C90001F90189585E791E00E947B05892B11F044
:100CA0000C94160608951F920F920FB60F921124FE
:100CB0002F933F938F939F93EF93FF932091D401B2
:100CC0003091D5018091D6019091D701281739072D
:100CD00031F48091C1008F7D8093C10014C0E091F8
:100CE000D601F091D701EC56FE4F20818091D601BC
:100CF0009091D70101968F7399279093D701809394
:100D0000D6012093C600FF91EF919F918F913F9163
:100D10002F910F900FBE0F901F901895CF92DF92DA
:100D2000EF92FF92CF93DF93EC016A017B014115B3
:100D300081EE580761057105F9F0EC89FD8981E0C4
:100D400090E00E8C02C0880F991F0A94E2F780830E
:100D500060E079E08DE390E0A70196010E94CA0C63
:100D600021503109410951095695479537952795E5
:100D7000211580E1380798F0EC89FD89108260E840
:100D800074E88EE190E0A70196010E94CA0C215000
:100D90003109410951095695479537952795E889B5
:100DA000F9893083EA89FB892083EE89FF894081B4
:100DB00081E090E09C010A8C02C0220F331F0A944C
:100DC000E2F7422B4083EE89FF8940819C010B8C26
:100DD00002C0220F331F0A94E2F7422B4083EE89B0
:100DE000FF8940819C010C8C02C0220F331F0A94A2
:100DF000E2F7422B4083EE89FF8920810D8C02C0EF
:100E0000880F991F0A94E2F7809582238083DF91EF
:100E1000CF91FF90EF90DF90CF90089510927801DE
:100E20001092770188EE93E0A0E0B0E08093790122
:100E300090937A01A0937B01B0937C0189E291E0C9
:100E4000909376018093750188ED91E090938201F3
:100E50008093810184E991E09093840180938301E0
:100E600085EC90E0909386018093850184EC90E07E
:100E7000909388018093870180EC90E090938A01A1
:100E80008093890181EC90E090938C0180938B0199
:100E900086EC90E090938E0180938D0184E08093A6
:100EA0008F0183E08093900187E08093910185E03A
:100EB0008093920181E08093930108950E94A7049A
:100EC0000E940F03CAE4D6E00E945F032097E1F37B
:100ED0000E944A06F9CFCF92DF92EF92FF920F93D2
:100EE0001F93CF93DF936C01EB017A01E60EF71E9F
:100EF00000E010E00BC06991D601ED91FC910190EA
:100F0000F081E02DC6010995080F191FCE15DF05E8
:100F100091F7C801DF91CF911F910F91FF90EF9052
:100F2000DF90CF900895DB010D900020E9F7AD012F
:100F300041505109461B570BDC01ED91FC91028099
:100F4000F381E02D09940C9493070F931F93CF9393
:100F5000DF93EC010E948B04688779878A879B87DF
:100F6000E881F9810680F781E02DCE0109959C0189
:100F700097FF15C00E948B04088519852A853B853B
:100F8000601B710B820B930B0C811D812E813F81A5
:100F9000601771078207930718F32FEF3FEFC9011E
:100FA000DF91CF911F910F910895AF92BF92CF9291
:100FB000DF92EF92FF920F931F93CF93DF936C0119
:100FC0008A017901C0E0D0E02115310599F0A62E03
:100FD000BB24A7FCB094C6010E94A50797FD0AC0D8
:100FE0008A159B0539F0F80181938F012196CE1562
:100FF000DF0589F7CE01DF91CF911F910F91FF900F
:10100000EF90DF90CF90BF90AF900895CF93DF9394
:10101000EC0160E08E810E94440581E090E00E9436
:101020009D0461E08E810E94440581E090E00E9471
:101030009D0460E08E810E94440584E690E0DF918B
:10104000CF910C949D04CF92DF92EF92FF920F9379
:101050001F93CF93DF937C01C0E0D0E0C62ED12C4C
:1010600087010C0F1D1F61E0F80187810E940C05AC
:10107000B6010C2E02C0759567950A94E2F761706F
:101080007727F80187810E9444052196C430D10555
:1010900039F7C701DF91CF911F910F91FF90EF902A
:1010A000DF90CF900C940608CF92DF92EF92FF92E0
:1010B0000F931F93CF93DF937C01C0E0D0E0C62E47
:1010C000D12C87010C0F1D1F61E0F80187810E9460
:1010D0000C05B6010C2E02C0759567950A94E2F7CF
:1010E00061707727F80187810E9444052196C830F6
:1010F000D10539F7C701DF91CF911F910F91FF9073
:10110000EF90DF90CF900C9406081F93CF93DF935E
:10111000EC01162F642F8C810E9444058D818F3F36
:1011200019F060E00E9444058F85612F84FF06C09E
:10113000CE01DF91CF911F910C94540870E084E0B0
:10114000759567958A95E1F7CE010E942308612F76
:10115000CE01DF91CF911F910C94230841E00E94B2
:10116000850881E090E0089540E00C948508CF92D6
:10117000DF92EF92FF920F931F93CF93DF9300D0F4
:10118000CDB7DEB78C01677088E0689FB00111248D
:101190006064C80149835A830E94B4084981C42EFF
:1011A0005A81D52EE12CF12CD6016D916D01D8011B
:1011B000ED91FC910190F081E02DC8010995BFEF00
:1011C000EB1AFB0AE8E0EE16F10471F70F900F90AE
:1011D000DF91CF911F910F91FF90EF90DF90CF9013
:1011E0000895FC016089262F2160208B69600C9492
:1011F000B408FC0160896E7F608B68600C94B40851
:10120000FC016089262F2460208B6C600C94B4084C
:10121000CF93DF93CDB7DEB728970FB6F894DEBF34
:101220000FBECDBF28E0EAE0F1E0DE0111960190AB
:101230000D922A95E1F7FC012389421710F0422F05
:101240004150FE013196E40FF11DE40FF11D2081A4
:10125000260F2068622F28960FB6F894DEBF0FBEC7
:10126000CDBFDF91CF910C94B40861E00E94B40827
:1012700080ED97E00C949D04CF93DF93EC01423016
:1012800018F08F8588608F874B8B1C8A222329F06A
:10129000413019F48F8584608F8780E593EC0E943C
:1012A0009D0460E08C810E94440560E08E810E9474
:1012B00044058D818F3F19F060E00E9444056F85E1
:1012C00064FD1DC063E0CE010E94230884E991E122
:1012D0000E949D0463E0CE010E94230884E991E10D
:1012E0000E949D0463E0CE010E94230886E990E0FD
:1012F0000E949D0462E0CE010E94230816C0606235
:10130000CE010E94B40884E991E10E949D046F859A
:101310006062CE010E94B40886E990E00E949D04BC
:101320006F856062CE010E94B4086F856062CE0155
:101330000E94B40884E0888BCE010E940009CE018F
:101340000E94350982E0898B66E0CE01DF91CF9162
:101350000C94B4086F927F928F92AF92CF92EF92DB
:101360000F931F93CF93DF93CDB7DEB73C01162FBA
:10137000842F5D854E853F859889F301848325837D
:101380000683E782C086A186828653874487358795
:10139000968761E00E940C05F30185818F3F19F06B
:1013A00061E00E940C0561E0F30186810E940C055A
:1013B000112319F0F301178603C080E1F301878739
:1013C00020E041E060E1C301DF91CF911F910F91D7
:1013D000EF90CF90AF908F907F906F900C943C09DE
:1013E0008F92AF92CF92EF920F93DC0113961C92E3
:1013F0001E921297E9E3F1E0ED93FC931F921F9286
:101400001F921F928C2CAE2CC02EE22E042F2FEF99
:10141000462F61E00E94AA090F900F900F900F9045
:101420000F91EF90CF90AF908F900895F8940C9417
:10143000290DFB01DC0102C005900D924150504086
:10144000D8F70895FB01DC0105900D920020E1F72B
:101450000895A0E1B0E0EFE2FAE00C94FA0C0F89F5
:10146000188D86E08C831A8309838FEF9FE79E8314
:101470008D83AE01455E5F4F588B4F87698D7A8DA6
:10148000CE0101960E944D0AEF81F885E00FF11F11
:1014900010826096E4E00C94160DACE0B0E0E3E559
:1014A000FAE00C94EC0C7C016B018A01FC011782C0
:1014B0001682838181FFC7C188248394912C8C0E6E
:1014C0009D1EF7019381F60193FD859193FF819114
:1014D0006F01882309F4B3C1853239F493FD8591F6
:1014E00093FF81916F01853229F4B70190E00E944A
:1014F000400CE7CF712C312C20E02032A8F48B3245
:1015000061F028F4803251F0833271F40BC08D32D7
:1015100039F0803349F4216028C02260246025C05E
:10152000286023C0206121C027FD27C0382F3053F9
:101530003A3078F426FF06C0FAE07F9E300D112481
:10154000732E13C08AE0389E300D1124332E206292
:101550000CC08E3221F426FD72C1206406C08C3688
:1015600011F4206802C0883641F4F60193FD85919C
:1015700093FF81916F018111C0CF982F95549330C3
:1015800018F09052933028F40C5F1F4FFFE3F9835B
:101590000DC0833631F0833771F0833509F05EC0BA
:1015A00023C0F801808189830E5F1F4F66246394F6
:1015B000712C540115C02801F2E04F0E511CF801A6
:1015C000A080B18026FF03C0672D70E002C06FEFDE
:1015D0007FEFC5012C870E94350C3C0182012C85D0
:1015E0006FE7262E222218C02801F2E04F0E511C70
:1015F000F801A080B18026FF03C0672D70E002C013
:101600006FEF7FEFC5012C870E942A0C3C012C85CF
:1016100050E8252E222A820123FC1CC006C0B701F7
:1016200080E290E00E94400C3A94832D90E068168E
:101630007906A8F30FC0F50127FC859127FE81915B
:101640005F01B70190E00E94400C31103A94F1E044
:101650006F1A71086114710471F7EEC0843611F0CD
:10166000893641F5F80127FF07C0608171818281C9
:1016700093810C5F1F4F08C060817181882777FDBF
:101680008095982F0E5F1F4F4FE6642E622297FFC2
:1016900009C090958095709561957F4F8F4F9F4FB2
:1016A000F0E86F2A2AE030E0A4010E946C0CA82E1A
:1016B000A81844C0853731F43FEEB32EB2222AE099
:1016C00030E024C099EFB92EB2228F36B9F020F461
:1016D000883509F0B4C00DC0803721F0883709F093
:1016E000AEC002C020E1B22AB4FE0BC084E0B82A2A
:1016F00008C024FF09C0E6E0BE2A06C028E030E0AA
:1017000005C020E130E002C020E132E0F801B7FE80
:1017100007C060817181828193810C5F1F4F06C079
:101720006081718180E090E00E5F1F4FA4010E94F4
:101730006C0CA82EA8188FE7682E6B2066FE0BC0D5
:10174000362D3E7FA71450F464FE0AC062FC08C028
:10175000362D3E7E05C0BA2C362D03C0BA2C01C0F2
:10176000B72C34FF0DC0FE01EA0DF11D80818033DE
:1017700011F4397E09C032FF06C0B394B39404C09B
:10178000832F867809F0B39433FD14C030FF0FC067
:101790007A2CB31460F4730C7B18B32C08C0B70117
:1017A00080E290E03C870E94400CB3943C85B314E7
:1017B000B0F304C0B31410F43B1801C0312C34FF53
:1017C00012C0B70180E390E03C870E94400C3C854A
:1017D00032FF1EC031FF03C088E590E002C088E7F9
:1017E00090E0B7010CC0832F867891F031FD02C0E4
:1017F00080E201C08BE237FD8DE2B70190E00E94EC
:10180000400C06C0B70180E390E00E94400C7A943F
:10181000A714C0F3AA94F401EA0DF11DB701808169
:1018200090E00E94400CA110F5CF06C0B70180E205
:1018300090E00E94400C3A943110F8CF42CEF7016C
:101840002681378102C02FEF3FEFC9012C96E2E1DC
:101850000C94080DFC010590615070400110D8F700
:10186000809590958E0F9F1F0895FC0161507040E8
:1018700001900110D8F7809590958E0F9F1F0895C5
:101880000F931F93CF93DF938C01EB018B8181FD2D
:1018900003C00FEF1FEF1AC082FF0DC02E813F81E2
:1018A0008C819D812817390764F4E881F9810193BF
:1018B000F983E88306C0E885F985802F0995892B8F
:1018C00041F78E819F8101969F838E83C801DF91AE
:1018D000CF911F910F910895FA01AA27283051F155
:1018E000203181F1E8946F936E7F6E5F7F4F8F4F51
:1018F0009F4FAF4FB1E03ED0B4E03CD0670F781FB0
:10190000891F9A1FA11D680F791F8A1F911DA11D94
:101910006A0F711D811D911DA11D20D009F46894CD
:101920003F912AE0269F11243019305D3193DEF675
:10193000CF010895462F4770405D4193B3E00FD02B
:10194000C9F7F6CF462F4F70405D4A3318F0495D16
:1019500031FD4052419302D0A9F7EACFB4E0A695F9
:101960009795879577956795BA95C9F7009761051B
:10197000710508959B01AC010A2E06945795479571
:1019800037952795BA95C9F7620F731F841F951F66
:10199000A01D0895A1E21A2EAA1BBB1BFD010DC0BC
:1019A000AA1FBB1FEE1FFF1FA217B307E407F5070F
:1019B00020F0A21BB30BE40BF50B661F771F881FEB
:1019C000991F1A9469F760957095809590959B0181
:1019D000AC01BD01CF0108952F923F924F925F92CB
:1019E0006F927F928F929F92AF92BF92CF92DF922F
:1019F000EF92FF920F931F93CF93DF93CDB7DEB794
:101A0000CA1BDB0B0FB6F894DEBF0FBECDBF099427
:101A10002A88398848885F846E847D848C849B847E
:101A2000AA84B984C884DF80EE80FD800C811B818C
:101A3000AA81B981CE0FD11D0FB6F894DEBF0FBEBB
:101A4000CDBFED010895EE0FFF1F0590F491E02D3D
:061A50000994F894FFCF99
:101A560002080C061F1F060C0801000040001400B7
:101A660054004350556475696E6F2C25642C2564AB
:101A7600004F4B0A0000000000E0056B077B05AA3B
:0E1A8600058E05CE0500000000AE086B0700BF
:00000001FF
